:080000000C9479000C9400003F
:100008000C9400000C9400000C9400000C94000068
:100018000C9400000C9400000C9400000C94000058
:100028000C9400000C9400000C9400000C94000048
:100038000C9400000C9400000C9400000C94000038
:100048000C9400000C9400000C9400001027E803A6
:1000580064000A00010000100001100001004B6953
:1000680072696D2044617461205553415254200DCA
:100078000054656B616E20546F6D626F6C20556E15
:1000880074756B204D656E676972696D2044617483
:1000980061200D0046617468616E204E6F766120A4
:1000A8004172726F79616E200D0046617468616EED
:1000B800204E6F7661204172726F79616E00546FC5
:1000C8006D626F6C20320032342E31312E3630366C
:1000D80034200D0032342E31312E363036340000C3
:1000E80080C002006002E8000000F894EE27ECBB34
:1000F800F1E0FBBFEBBFE5BF8DE0A2E0BB27ED93CE
:100108008A95E9F780E098E0A0E6ED930197E9F792
:10011800EAEEF0E085919591009761F0A591B5918F
:1001280005901590BF01F00105900D920197E1F738
:10013800FB01F0CFEFE5EDBFE8E0EEBFC0E6D2E0AF
:100148000C94A600E0E0EABBEBBBE7BBE8BBE4BB72
:10015800E5BBE1BBE2BBE3BFE2BFECBFEFBDEEBD79
:10016800EDBDECBDE7BDE6BDEBBDEABDE9BDE8BD53
:10017800E2BDE5BDE4BDE3BDE9BFE5BFE4BFEBB962
:10018800E8E1EAB9E6E8E0BDE0E0E0BDEDE4E9B9C0
:10019800E0E8E8B9E0E0E0BFE6B9EDB9E6BFEABB00
:1001A800E7E0EBBBA0E1A0D0E6E6F0E00E94380370
:1001B800E9E7F0E00E943803C89909C0C89BFECF60
:1001C8000E943F030E944403A2EBB0E07CD0C9998F
:1001D8000FC0A6ECB0E077D0C99BFECF54D0EFECAF
:1001E800F0E00E9438030E944403ACEDB0E06BD00D
:1001F800CA9914C0CA9BFECF0E943F03EFECF0E0FF
:100208000E9438030E944403A2EBB0E05CD0E0E017
:10021800EA93A2E026D0ACEDB0E055D0CDCFFFCF29
:100228001A931A2FE5B3EF70AE2FE12FE07FEA2B78
:10023800E5BB84E18A95F1F7AA9A84E18A95F1F7FA
:10024800AA9884E18A95F1F77CC0AA93A881E8DF8F
:10025800E881E295E883A881E3DF88EC8A95F1F7E5
:1002680077C01A930A931A2F0A81E12FF0E0E05A17
:10027800FD4FE081E00FAE2FE8DF502E412E1981AF
:10028800088123960895A2E00E944903ACE0DDDFCF
:10029800A1E00E944903E0E04E2E5E2E08951A93D5
:1002A8001A2F1A3011F0571440F0E0E0EA93439403
:1002B800A42DD7DF1A3009F444C05394A89AA12F6B
:1002C800C4DFA8983EC00E9476039D01F9012F5F04
:1002D8003F4FE4911E2FE03019F0A12FE0DFF6CF59
:1002E8000E947D03249608951A931A2FE4B3E06FB1
:1002F800E4BBA29AA09AA19AAA98A898A998712E44
:10030800E12FE058E0936202E12FE054E0936302AA
:10031800A4E1B0E00E9492030E944F030E944F03A1
:100328000E944F03A0E27CDF8CE291E00197F1F795
:10033800A8E28BDFA4E089DFA5E887DFA6E085DFF8
:10034800A2DF19910895AA935D9BFECFE881ECB9CD
:10035800219608950E9476038D013C81A32FF3DF37
:10036800D801ED91FD913196FE93EE930E947D03A5
:1003780025960895BA93AA9326970E94740310E0CD
:10038800AC85BD85E0E0F0E0ED93FC93EA89FB895C
:100398003196EA8BFB8B3197E4912E2FE03009F4EC
:1003A8001DC1E12FE03039F4253211F411E002C00B
:1003B8000E94570312C1E130A9F4253219F40E94B2
:1003C80057030AC112E040E000E02D3211F401E0C9
:1003D80004C12B3211F44BE200C1203211F440E287
:1003E800FCC002C0E23039F450E013E0203311F4CD
:1003F8000068F3C003C0E33009F0EFC0203310F009
:100408002A3308F007C0AAE05A9F502DE22FE05384
:100418005E0FE3C0E22FE33649F40E945E03E889E9
:10042800F989A481AA930E946403D6C0E33741F4F2
:100438000E945E030E946A030E941F031E2F0AC0C7
:10044800E03761F40E945E030E946A030E942B0356
:100458001E2F086002600F7730E03CC0E43611F0D0
:10046800E93611F4046002C0E53731F4E4E5F0E060
:10047800EE83FF8315E00CC0E83511F4086003C073
:10048800E83709F0A9C0EEE5F0E0EE83FF8314E059
:1004980002FF17C00E945E03A889B9891496ED91DE
:1004A800FD91EA87FB87AB85AA232AF40E9486037D
:1004B800EA87FB874DE2403011F01F5F01C00B7FD8
:1004C80009C00E945E03A889B98914960E948A030C
:1004D800EA87FB8700FD11C0151778F407FF08C0ED
:1004E80002FF04C00B7F242F115001C020E301C07C
:1004F80020E20E9457035150EFCF312F01FF17C060
:100508003030A1F003FF06C0EE81FF812591EE8314
:10051800FF8305C0AE81BF812D91AE83BF830E944A
:100528005703503009F051503150EACF4BC020E307
:10053800EE81FF810E948E03E887F987EE81FF81B3
:100548003296EE83FF83E885F985AA85BB85AE17C9
:10055800BF0750F02F5FA885B985EA85FB85EA1BA0
:10056800FB0BEA87FB87EFCF2A3328F003FF02C093
:10057800295F01C0295D04FD1AC0213320F4A88534
:10058800B985119709F409C0531710F000FF01C08D
:1005980013C020E207FF0BC020E3006102FF07C081
:1005A8000B7F4A930E946403503009F051500E9417
:1005B8005703503009F051503150A885B98512972A
:1005C80008F0B5CF00FF08C0503031F05150E0E2DC
:1005D800EA930E946403F8CF10E0D8CEAC85BD85BD
:1005E800ED91FD910E947B0364960895FF92F82E89
:1005F80026971A930A93DE0114960E9482038D01AE
:10060800E0E0EC83ED83EE83EF83DE0118960E9431
:100618008203ED91FD91FA93EA931A930A93EEEA15
:10062800F1E0FA93EA93DE011896A4DE19810881B5
:100638002896FF900895BA93AA93A991B991EE27A5
:10064800FF276D91662311F03196FBCF0895BA9379
:10065800AA93AA27BB27E991F9910590002011F0E8
:100668001196FBCFFD010895FA93EA9380E00E946A
:10067800FA02229608950E944701ECE9F0E0F4CFCF
:10068800E0E0EA93A0E00C9435010E942901A3E080
:10069800B0E00C949203A0E30E9414018CE291E074
:1006A8000197F1F708952A93AD85BE85EF85F889FE
:1006B80009950895E889F9893497E88BF98B0895A5
:1006C800AD85BE85EF85F88909950895A889B9890A
:1006D8001496ED91FD91EE83FF83AE81BF8108955D
:1006E8005A934A933A932A931A930A9308955D81E9
:1006F8004C813B812A811981088108950024AF0D1E
:10070800B01D0895F195E195F0400895ED91FC91A3
:10071800119708950590F491E02D0895109639F0F9
:10072800A89588EB9BE00197F1F71197C9F7089511
:00000001FF
