:0A0000000C9432000C9400000C94E4
:10000A0000000C9400000C9400000C9400000C9466
:10001A0000000C9400000C9400000C9400000C9456
:10002A0000000C9400000C9400000C9400000C9446
:10003A0000000C9400000C9400000C9400000C9436
:10004A0000000C9400000C9400004E6F76610000D2
:10005A0080C0020060025A000000F894EE27ECBB50
:10006A00F1E0FBBFEBBFE5BF8DE0A2E0BB27ED935C
:10007A008A95E9F780E098E0A0E6ED930197E9F721
:10008A00ECE5F0E085919591009761F0A591B59125
:10009A0005901590BF01F00105900D920197E1F7C7
:1000AA00FB01F0CFEFE5EDBFE8E0EEBFC0E6D2E03E
:1000BA000C945F00A0E182D010E01D3068F44CD0AF
:1000CA001A93A0E03CD0A4E5B0E065D0A2E3B0E08A
:1000DA000E941B011F5FF1CFEFCFFFCFAA93E881E8
:1000EA00E07111F0C09A01C0C098E881E07211F085
:1000FA00969A01C09698E881E07411F0A99A01C015
:10010A00A998E881E07811F0D89A01C0D89884E1DA
:10011A008A95F1F7DA9A84E18A95F1F7DA9884E117
:10012A008A95F1F775C0AA93A881D8DFE881E2958C
:10013A00E883A881D3DF88EC8A95F1F769C0AA938E
:10014A00E881F0E0E05AFD4FE081A981AE0FEBDFD4
:10015A005980488022960895A2E05CD0ACE0E3DFA3
:10016A00A1E058D0E0E04E2E5E2E0895AA93A88111
:10017A00AA3011F0571448F0E0E0EA934394A42D12
:10018A00DEDFA881AA3009F443C05394AC9AA8814F
:10019A00CADFAC983DC0BA93AA931A93E981FA814F
:1001AA003196E983FA833197E4911E2FE03019F0F2
:1001BA00A12FDCDFF3CF188123960895AA93B89A6A
:1001CA008E9AA19AD09AD29AA49ABA9ADA98AC98A4
:1001DA00C2987880E881E058E0936202E881E054AE
:1001EA00E0936302A4E1B0E00E941B0118D017D08B
:1001FA0016D0A0E273DF8CE291E00197F1F7A8E252
:10020A0092DFA4E090DFA5E88EDFA6E08CDFA4DF12
:10021A002196089588DFA3E0B0E00C941B01A0E3C7
:10022A005DDF8CE291E00197F1F70895109639F0BD
:10023A00A89588EB9BE00197F1F71197C9F7089504
:00000001FF
