:0E0000000C946D000C9400000C9400000C9405
:10000E0000000C9400000C9400000C9400000C9462
:10001E0000000C9400000C9400000C9400000C9452
:10002E0000000C9400000C9400000C9400000C9442
:10003E0000000C9400000C9400000C9400000C9432
:10004E0000000C9400001027E80364000A00010071
:10005E0000100001100001004B6972696D2064618F
:10006E007461206B65205553415254200D00546528
:10007E006B616E20746F6D626F6C20756E74756B34
:10008E00206D656E676972696D2064617461200D03
:10009E0000546F6D626F6C20646974656B616E20C5
:1000AE002575206B616C69200D00546F6D626F6C4D
:1000BE0020646974656B616E002569206B616C69E3
:1000CE00000080C002006002D0000000F894EE270D
:1000DE00ECBBF1E0FBBFEBBFE5BF8DE0A2E0BB27C1
:1000EE00ED938A95E9F780E098E0A0E6ED9301970D
:1000FE00E9F7E2EDF0E085919591009761F0A59119
:10010E00B59105901590BF01F00105900D920197E4
:10011E00E1F7FB01F0CFEFE5EDBFE8E0EEBFC0E6A3
:10012E00D2E00C949A00A09710E0E0E0EABBEBBBA3
:10013E00E7BBE8BBE4BBE5BBE1BBE2BBE3BFE2BFB1
:10014E00ECBFEFBDEEBDEDBDECBDE7BDE6BDEBBD5D
:10015E00EABDE9BDE8BDE2BDE5BDE4BDE3BDE9BF75
:10016E00E5BFE4BFEBB9E8E1EAB9E6E8E0BDE0E0FF
:10017E00E0BDEDE4E9B9E0E8E8B9E0E0E0BFE6B9FA
:10018E00EDB9E6BFA0E19FD0E6E6F0E00E94830362
:10019E00ECE7F0E00E948303C89B21C0C899FECF14
:1001AE001F5FEFE9F0E00E948A030E944B03269640
:1001BE00E0E0EA93A0E036D0A8EBB0E073D0E0E048
:1001CE00EA93A1E02FD0FE01FA93EA93E7ECF0E078
:1001DE000E948A030E941B032896DE0155D0DCCFB5
:1001EE00FFCF1A931A2FE5B3EF70AE2FE12FE07FFA
:1001FE00EA2BE5BB84E18A95F1F7AA9A84E18A9508
:10020E00F1F7AA9884E18A95F1F78AC0AA93A8819A
:10021E00E8DFE881E295E883A881E3DF88EC8A9540
:10022E00F1F785C01A930A931A2F0A81E12FF0E095
:10023E00E05AFD4FE081E00FAE2FE8DF502E412E49
:10024E001981088123960895A2E00E949403ACE0E0
:10025E00DDDFA1E00E949403E0E04E2E5E2E0895B5
:10026E001A931A2F1A3011F0571440F0E0E0EA9367
:10027E004394A42DD7DF1A3009F452C05394A89A90
:10028E00A12FC4DFA8984CC00E94D0039D01D901B4
:10029E002F5F3F4FEC911E2FE03019F0A12FE0DFC2
:1002AE00F6CF0DC00E94D0039D01F9012F5F3F4F85
:1002BE00E4911E2FE03019F0A12FD2DFF6CF0E946D
:1002CE00D703249608951A931A2FE4B3E06FE4BB74
:1002DE00A29AA09AA19AAA98A898A998712EE12FED
:1002EE00E058E0936202E12FE054E0936302A4E150
:1002FE00B0E00E94F5030E949A030E949A030E94A6
:10030E009A03A0E26EDF8CE291E00197F1F7A8E28A
:10031E007DDFA4E07BDFA5E879DFA6E077DF94DF61
:10032E0019910895AA935D9BFECFE881ECB92196B1
:10033E0008950E94D0038D013C81A32FF3DFD801D5
:10034E000E94A2030E94D703259608950E94CE0311
:10035E009D015E8112960E94E803309701F1D9014A
:10036E0014960E94E8038F01309759F00230E0E0B6
:10037E001E0768F0F80131978F01D9011496ED939D
:10038E00FC93D90112960E94A20331975083D90192
:10039E000E94E803FF2312F00E94A20305C0D901B8
:1003AE00EFEFFFEFED93FC930E94D5032796089590
:1003BE00BA93AA9326970E94CE0310E0AC85BD8512
:1003CE00E0E0F0E0ED93FC93EA89FB893196EA8B4D
:1003DE00FB8B3197E4912E2FE03009F41DC1E12FF4
:1003EE00E03039F4253211F411E002C00E94A80366
:1003FE0012C1E130A9F4253219F40E94A8030AC1F2
:10040E0012E040E000E02D3211F401E004C12B3285
:10041E0011F44BE200C1203211F440E2FCC002C0E4
:10042E00E23039F450E013E0203311F40068F3C0E9
:10043E0003C0E33009F0EFC0203310F02A3308F088
:10044E0007C0AAE05A9F502DE22FE0535E0FE3C083
:10045E00E22FE33649F40E94AF03E889F989A481BB
:10046E00AA930E94B503D6C0E33741F40E94AF03AE
:10047E000E94BB030E946A031E2F0AC0E03761F47C
:10048E000E94AF030E94BB030E9476031E2F0860DA
:10049E0002600F7730E03CC0E43611F0E93611F41B
:1004AE00046002C0E53731F4E4E5F0E0EE83FF834B
:1004BE0015E00CC0E83511F4086003C0E83709F008
:1004CE00A9C0EEE5F0E0EE83FF8314E002FF17C053
:1004DE000E94AF03A889B9891496ED91FD91EA8720
:1004EE00FB87AB85AA232AF40E94E403EA87FB87E5
:1004FE004DE2403011F01F5F01C00B7F09C00E941A
:10050E00AF03A889B98914960E94E803EA87FB878E
:10051E0000FD11C0151778F407FF08C002FF04C0D4
:10052E000B7F242F115001C020E301C020E20E9456
:10053E00A8035150EFCF312F01FF17C03030A1F07B
:10054E0003FF06C0EE81FF812591EE83FF8305C078
:10055E00AE81BF812D91AE83BF830E94A803503020
:10056E0009F051503150EACF4BC020E3EE81FF81AC
:10057E000E94EC03E887F987EE81FF813296EE83C5
:10058E00FF83E885F985AA85BB85AE17BF0750F0B6
:10059E002F5FA885B985EA85FB85EA1BFB0BEA87E9
:1005AE00FB87EFCF2A3328F003FF02C0295F01C07B
:1005BE00295D04FD1AC0213320F4A885B985119751
:1005CE0009F409C0531710F000FF01C013C020E258
:1005DE0007FF0BC020E3006102FF07C00B7F4A93A9
:1005EE000E94B503503009F051500E94A8035030BC
:1005FE0009F051503150A885B985129708F0B5CF42
:10060E0000FF08C0503031F05150E0E2EA930E94F2
:10061E00B503F8CF10E0D8CEAC85BD85ED91FD9138
:10062E000E94D50364960895FF92F82E26970E9495
:10063E00CE03FE010E94DC0346855785042E052A53
:10064E0019F4EFEFFFEF1BC0DE0118960E94E003D6
:10065E008D0148875987E0E0EA87EB87DE011C961B
:10066E000E94C503EDEAF1E0FA93EA93DE011C96CF
:10067E009FDE9F01A885B985E0E0EC93F9010E9409
:10068E00D5032C96FF900895FF92F82E26971A9375
:10069E000A93DE0114960E94E0038D01E0E0EC83E4
:1006AE00ED83EE83EF83DE0118960E94C503E0EA28
:1006BE00F1E0FA93EA93DE0118967ADE1981088149
:1006CE002896FF900895BA93AA93A991B991EE270F
:1006DE00FF276D91662311F03196FBCF0895BA93E3
:1006EE00AA93AA27BB27E991F9910590002011F052
:1006FE001196FBCFFD010895FA93EA9380E00E94D4
:10070E004B0322960895FA93EA93E12FFF2766276B
:10071E0077270E94F00384E008950E940D01A3E064
:10072E00B0E00C94F503A0E30E94F8008CE291E097
:10073E000197F1F70895ED91FD913196FE93EE93A9
:10074E0008952A93AD85BE85EF85F889099508959C
:10075E00E889F9893497E88BF98B0895AD85BE85C4
:10076E00EF85F88909950895A889B9891496ED91B0
:10077E00FD91EE83FF83AE81BF8108950E94E00359
:10078E00ED91FD91FA93EA931A930A9308955A9371
:10079E004A933A932A931A930A9308955D814C8152
:1007AE003B812A811981088108950024EF0DF01DE7
:1007BE0008950024AF0DB01D0895F195E195F04018
:1007CE000895ED91FC91119708950590F491E02D07
:1007DE0008957A936A93FA93EA930895109639F0EE
:1007EE00A89588EB9BE00197F1F71197C9F708954B
:00000001FF
