:040000000C94330029
:100004000C9400000C9400000C9400000C9400006C
:100014000C9400000C9400000C9400000C9400005C
:100024000C9400000C9400000C9400000C9400004C
:100034000C9400000C9400000C9400000C9400003C
:100044000C9400000C9400000C9400000C9400002C
:100054001027E80364000A000100001000011000EA
:100064000100F894EE27ECBBF1E0FBBFEBBFE5BF6A
:100074008DE0A2E0BB27ED938A95E9F780E098E054
:10008400A0E6ED930197E9F7EFE5EDBFE8E0EEBFF9
:10009400C0E6D2E00C944E00E2E00E946B00E4E083
:1000A4000E946B00E1E00E946B00E0E00E946B00A4
:1000B400E1E00E946B00E6E00E946B00E0E00E9439
:1000C4006B00E6E00E946B00E4E00E946B00E4CF6A
:1000D400FFCFE2BBA8EEB3E00C947000109639F0A9
:1000E400A89588EB9BE00197F1F71197C9F708955C
:00000001FF
