:0E0000000C94B2000C9400000C9400000C94C0
:10000E0000000C9400000C9400000C9400000C9462
:10001E0000000C9400000C9400000C9400000C9452
:10002E0000000C9400000C9400000C9400000C9442
:10003E0000000C9400000C9400000C9400000C9432
:10004E0000000C9400001027E80364000A00010071
:10005E0000100001100001004D6F6E69746F722068
:10006E00537568752020200053756875203A20005E
:10007E004320202020004B4542414B4152414E210E
:10008E002020202020202020202020004741532007
:10009E00544552444554454B53492120202020209D
:1000AE0020202020004150492054455244455445BB
:1000BE004B53492120202020202020202020005397
:1000CE00554855204D454E494E474B415421202011
:1000DE002020202020202000535548552054494EE2
:1000EE004747492120202020202020202000414D5C
:1000FE00414E2020202020202020202020202020A3
:10010E002020200001002D4E414E00494E46000099
:10011E0080C01000600266000800700276000600C3
:10012E0078027E0016007E028400190094029A0066
:10013E001A00AD02B3001900C702CD001600E0028E
:10014E00E6001600F602FC0001000C03120102008C
:10015E0010031E010000F894EE27ECBBF1E0FBBF8C
:10016E00EBBFE5BF8DE0A2E0BB27ED938A95E9F7E3
:10017E0080E098E0A0E6ED930197E9F7E0E2F1E088
:10018E0085919591009761F0A591B5910590159087
:10019E00BF01F00105900D920197E1F7FB01F0CF41
:1001AE00EFE5EDBFE8E0EEBFC0E6D2E00C94120141
:1001BE00AA93E881E064E7B9AAE0B0E00E94A50541
:1001CE00369A349BFECF349AE4B1F5B10C942103E8
:1001DE00BA93AA932497EC81FD81662777270E9414
:1001EE006A04A0E0B0E080EA90E40E94F304DF012C
:1001FE00CB01E0E0F0E060E874E40E9441050E946B
:10020E0078030E947B03E0E0F0E068EC72E40E9469
:10021E00F304269608952E9730E0E0E0EABBEBBBA0
:10022E00EFEFE4BBE0E0E5BBE0E8E1BBE0E0E2BB22
:10023E00E0E4E7B9E4E8E6B9E0E0E0BFA0E10E945F
:10024E00F5020E94C302A0E0B3DFDF01C1DF0E940E
:10025E0078030E947E030E94E703E1E0EA93DE0149
:10026E0019960E94C901E0E0C999E1E01E2FE0E075
:10027E00CA99E1E00E2F30E0E0E0EA93A0E00E94A0
:10028E00B602A0E6B2E00E94E402E0E0EA93A1E04A
:10029E000E94B602A0E7B2E00E94E402DE011496CC
:1002AE000E94E402AFED0E94CF02A8E7B2E00E94E6
:1002BE00E402E0E0EA93A3E00E94B602103011F0EF
:1002CE00003009F406C0AEE7B2E00E94E40231E06D
:1002DE003CC0103031F0A4E9B2E00E94E40231E0FB
:1002EE0034C0003031F0ADEAB2E00E94E40231E0F9
:1002FE002CC00E947B03E0E0F0E060EF71E40E940E
:10030E00850560F00E947B03EAE9F9E96BE072E48F
:10031E000E94850511F008F001C001C003C0A7ECD2
:10032E00B2E011C00E947B03E0E0F0E06CE072E40A
:10033E000E94850530F0A0EEB2E00E94E40231E0AA
:10034E0004C0A6EFB2E00E94E4023030A1F040E01B
:10035E0050E04233E0E05E076CF4979884EA9FE148
:10036E000197F1F7979A84EA9FE10197F1F74F5FB2
:10037E005F4FEFCF05C09798A4EFB1E00E94A5059F
:10038E0062CFFFCFBA93AA932497E0E0E883E98384
:10039E00EA83EFE3EB831A930A93EB85FC85EF3F39
:1003AE00AFEFFA0739F40E948103A4E1B1E00E9495
:1003BE006B03B1C0EF3FAFE7FA0739F40E94810338
:1003CE00A5E1B1E00E946B03A6C0AC85AA2362F43E
:1003DE00E985FA856B857C850E94FE030E94860363
:1003EE000E948B03EDE2EC93A885A73010F0E6E0B7
:1003FE00E8871885E12F1150E03039F00E94920302
:10040E000E9497030E949E03F5CF0E94A3030E94B1
:10041E00A4040E94860310E0E0E0F0E060E87FE3D1
:10042E000E949E030E94A3030E94850588F00E94ED
:10043E0092030E94AC030E949E031F5F173238F096
:10044E000E948103A9E1B1E00E946B0364C0EACF70
:10045E00103029F40E948B03E0E3EC932FC0E12FC0
:10046E001150E03059F10E9492030E949703A0E0D0
:10047E00B0E080E09FE30E94A404DF01CB010E9464
:10048E0054030E949E030E94A3030E9441050E94F2
:10049E0031040E2F0E948B03E02FE05DEC93E02FD2
:1004AE00F0E00E9492030E94D3030E946A040E940D
:1004BE00F3040E94B3030E94B803D1CFE885E03065
:1004CE0031F10E948B03EEE2EC93E885E150E88770
:1004DE00EF5FE9F00E94B3030E94AC030E94860313
:1004EE00E985FA856B857C850E9431040E2F0E946A
:1004FE008B03E02FE05DEC93E02FF0E00E94B3035E
:10050E000E94D3030E946A040E94B803DECFAE811C
:10051E00BF81E0E0EC93198108812D960895AA938E
:10052E00E5B3EF70AE2FE881E07FEA2BE5BB84E107
:10053E008A95F1F7AA9A84E18A95F1F7AA9884E14F
:10054E008A95F1F777C0AA93A881E9DFE881E29551
:10055E00E883A881E4DF88EC8A95F1F76BC0AA9353
:10056E00E881F0E0E05FFC4FE081A981AE0FEBDFA8
:10057E005980488022960895A2E00E94BD03ACE007
:10058E00E2DFA1E00E94BD03E0E04E2E5E2E089554
:10059E00AA93A881AA3011F0571448F0E0E0EA932C
:1005AE004394A42DDCDFA881AA3009F443C05394F0
:1005BE00A89AA881C8DFA8983DC0BA93AA931A93A7
:1005CE00A981BA81ED91A983BA831E2FE03019F06B
:1005DE00A12FDEDFF5CF188123960895AA93E4B3F9
:1005EE00E06FE4BBA29AA09AA19AAA98A898A9989B
:1005FE007880E881E058E0931203E881E054E093BC
:10060E001303A4E1B0E00E94A5050E94C3030E945B
:10061E00C3030E94C303A0E282DF8CE291E0019744
:10062E00F1F7A8E290DFA4E08EDFA5E88CDFA6E06C
:10063E008ADFA2DF219608950E94EC037B816A81F6
:10064E00F981E88177FB770F67FD7160972F9E57D1
:10065E0081F078F0983190F4AA27BB278827089468
:10066E008795B795A7959A95D1F7EA23FB2368232B
:10067E0005C0E8947727EE27FF2766276F777695D4
:10068E0008F4606877F9A991B99189919991EA175F
:10069E00FB076807790797FB08950E94EC030E94F9
:1006AE007B030E9423030E94780319F40E947E03A9
:1006BE0009C0E6F70E947E03A0E0B0E080E89FE369
:1006CE000E949D0424960895BA93AA93E991F991F4
:1006DE00A991B991CD0105900D920020E1F7FC0191
:1006EE0008950E94E20308950E94DD0308950E947A
:1006FE00D8030895EE81FF81FA93EA930895E9876E
:10070E00FA876B877C870895AE81BF811196AE8381
:10071E00BF8311970895AA81BB818C819D81089515
:10072E00EDECFCEC6CEC7DE30E94F3040895EA839F
:10073E00FB836C837D830895EA81FB816C817D81CF
:10074E00A985BA858B859C850895E0E0F0E060E28E
:10075E0071E40E94F3040895A985BA858B859C8562
:10076E0008950E94F1030E949D04C9CF0E94AA021F
:10077E00A3E0B0E00C94A505A0E30E9496028CE2E3
:10078E0091E00197F1F70895F09560957095E195D8
:10079E00FF4F6F4F7F4F08956F2F660F660B762FAB
:1007AE000895E881F9816A817B810895A881B981D4
:1007BE008A819B810895E883F9836A837B830895F8
:1007CE007A936A93FA93EA9308959A938A93BA93D3
:1007DE00AA930895182E862F612D192E972F712DFD
:1007EE001B2EBF2FF12D1A2EAE2FE12D089530970F
:1007FE006040704009F070580895552342F4503807
:10080E0011F4E0FF04C03196691F791F6BF050E8B8
:10081E00572711F45F93CFC05F3F31F0660F000C86
:10082E0057956795752F08955F9300200AF0CEC0F7
:10083E00C7C050E8192E1522880F991F9527550FFE
:10084E00879550E8072E0522660F771F7527550FDF
:10085E0067950895689401C0E8945F93F2DF70384D
:10086E0018F07F3F08F4A7C056E1571BAAF4519524
:10087E0058300EF4593030F0EFEFFFEF6FEF7FE7A7
:10088E0077F91AC077275523B9F0EE0FFF1F661FB1
:10089E00771F5A95D1F710C07727583028F0EF2FD1
:1008AE00F62F672F5850F9CF552331F0769567956F
:1008BE00F795E7955A95D1F700200AF465DF5F9119
:1008CE000895689401C0E894309760407040B1F08C
:1008DE00002426F0772312F4009456DF172E7EE1C3
:1008EE00112032F07A95EE0FFF1F661F111CF9CF03
:1008FE00EF2FF62F612D5F938ADF5F9108954F934F
:10090E00AF01FD01DA01AB01BC01CA01402D012C82
:10091E00142E4F910895EA0FFB1F681F0895E0955E
:10092E00F0956095EF5FFF4F6F4F08955F9381DFF6
:10093E00903871F150E8152604C05F937ADF903835
:10094E0039F1703821F1572F591B2BF112F4D7DFE3
:10095E00FACF583118F0AA27BB278827583028F02D
:10096E00AB2FB82F88275850F9CF552329F08695ED
:10097E00B795A7955A95D9F7502D512572F0CBDF23
:10098E0038F46795F795E795739513F41FC0B7DFA5
:10099E003EDF5F910895D8F7FBCFEA1BFB0B680B88
:1009AE0051F010F40094BBDF662392F3EE0FFF1F9D
:1009BE00661F7A95CBF7EE27FF27BF015F9108954B
:1009CE00EFEFFFEF6FE77FEF5F910895EFEFFFEF30
:1009DE006FE77FE75F9108955F932BDF703859F3D0
:1009EE00903849F301240894791F23F424F300204E
:1009FE003AF3ECCF0F921F932F933F934F93112700
:100A0E0022279927689FA0018F9F302D410D591FD6
:100A1E006B9F300D411D591F8E9F27D0BF9F25D034
:100A2E006A9F23D0BE9F1DD0AF9F1BD0AE9F110DCE
:100A3E00291F391F491F591FE32FF42F652F522FDE
:100A4E004F913F912F911F910F9066232AF0550FD2
:100A5E00EE1FFF1F661F02C073954BF2CEDE5F9135
:100A6E000895100D211D391F02C0200D311D491F83
:100A7E00591F08955F93DDDE703821F411200AF4BA
:100A8E009FCFA4CF903809F496CF01240894970BEA
:100A9E001BF4D4F30020F3CF792F1F932F933F93A2
:100AAE004F931124112722273327A90190E2AE1765
:100ABE00BF078607410730F0AE1BBF0B860B410BFD
:100ACE00089401C08894551F221F331F111CAA1FA2
:100ADE00BB1F881F441F9A9551F7F901612D4F9145
:100AEE003F912F911F91662332F0550FEE1FFF1F7E
:100AFE00661F7A954BF281DE5F91089599239AF0E5
:100B0E00772342F0971748F029F4AE17BF078607F0
:100B1E0020F031F09894889408959894089408954C
:100B2E001894889408957723C2F7971798F3A9F726
:100B3E00EA17FB07680788F399F3ECCF109639F0A4
:100B4E00A89588EB9BE00197F1F71197C9F70895E7
:00000001FF
