:100000000C949A000C9400000C9400000C940000D6
:100010000C9400000C9400000C9400000C94000060
:100020000C9400000C9400000C9400000C94000050
:100030000C9400000C9400000C9400000C94000040
:100040000C9400000C9400000C9400000C94000030
:100050000C9400004D6F6E69746F72205375687553
:100060002020200053756875203A2000432020206E
:1000700020004B4542414B4152414E21202020203F
:100080002020202020202000474153205445524466
:100090004554454B5349212020202020202020205A
:1000A0000041504920544552444554454B53492141
:1000B000202020202020202020200053554855209B
:1000C00054494E474749212020202020202020202D
:1000D00000414D414E2020202020202020202020A3
:1000E000202020202020000001002D4E414E0049FC
:1000F0004E46000080C010006002540008007002EC
:100100006400060078026C0016007E02720019007E
:10011000940288001A00AD02A1001600C702BB00BD
:100120001600DD02D1000100F302E8000200F70230
:10013000F4000000F894EE27ECBBF1E0FBBFEBBF4E
:10014000E5BF8DE0A2E0BB27ED938A95E9F780E05B
:1001500098E0A0E6ED930197E9F7E6EFF0E08591EE
:100160009591009761F0A591B59105901590BF010B
:10017000F00105900D920197E1F7FB01F0CFEFE55B
:10018000EDBFE8E0EEBFC0E6D2E00C94FA00AA931F
:10019000E881E064E7B9AAE0B0E00E949A03369AE9
:1001A000349BFECF349AE4B1F5B10C94F002BA93CB
:1001B000AA932497EC81FD81662777270E9410047B
:1001C000A0E0B0E080EA90E40E949A04DF01CB0155
:1001D000E0E0F0E060E874E40E94E8040E94470375
:1001E0000E944A03E0E0F0E068EC72E40E949A04A6
:1001F000269608952E9730E0E0E0EABBEBBBEFEFE8
:10020000E4BBE0E0E5BBE0E8E1BBE0E0E2BBE0E46A
:10021000E7B9E7E8E6B9E0E0E0BFA0E10E94C40288
:100220000E949202A0E0B3DFDF01C1DF0E9447031A
:100230000E944D030E946905E1E0EA93DE011996F0
:100240000E949801E0E0C999E1E01E2FE0E0CA9920
:10025000E1E00E2F30E0E0E0EA93A0E00E948502AA
:10026000A0E6B2E00E94B302E0E0EA93A1E00E94BF
:100270008502A0E7B2E00E94B302DE0114960E945C
:10028000B302AFED0E949E02A8E7B2E00E94B30263
:10029000E0E0EA93A3E00E948502103011F0003004
:1002A00009F406C0AEE7B2E00E94B30231E023C019
:1002B000103031F0A4E9B2E00E94B30231E01BC07B
:1002C000003031F0ADEAB2E00E94B30231E013C079
:1002D0000E944A03E0E0F0E06CE072E40E942D0529
:1002E00030F0A7ECB2E00E94B30231E004C0ADED03
:1002F000B2E00E94B3023030A1F040E050E042335F
:10030000E0E05E076CF4979884EA9FE10197F1F7CB
:10031000979A84EA9FE10197F1F74F5F5F4FEFCF24
:1003200005C09798A4EFB1E00E949A037BCFFFCF5E
:10033000BA93AA932497E0E0E883E983EA83EFE3A2
:10034000EB831A930A93EB85FC85EF3FAFEFFA0737
:1003500039F40E945003AAEEB0E00E943A03B1C003
:10036000EF3FAFE7FA0739F40E945003ABEEB0E07D
:100370000E943A03A6C0AC85AA2362F4E985FA85F7
:100380006B857C850E94A4030E9455030E945A033A
:10039000EDE2EC93A885A73010F0E6E0E887188539
:1003A000E12F1150E03039F00E9461030E94660392
:1003B0000E946D03F5CF0E9472030E944A040E94BE
:1003C000550310E0E0E0F0E060E87FE30E946D0399
:1003D0000E9472030E942D0588F00E9461030E9412
:1003E0007B030E946D031F5F173238F00E94500399
:1003F000AFEEB0E00E943A0364C0EACF103029F4B7
:100400000E945A03E0E3EC932FC0E12F1150E0303B
:1004100059F10E9461030E946603A0E0B0E080E011
:100420009FE30E944A04DF01CB010E9423030E9444
:100430006D030E9472030E94E8040E94D7030E2FEE
:100440000E945A03E02FE05DEC93E02FF0E00E9461
:1004500061030E9455050E9410040E949A040E94A4
:1004600082030E948703D1CFE885E03031F10E94FA
:100470005A03EEE2EC93E885E150E887EF5FE9F09C
:100480000E9482030E947B030E945503E985FA853E
:100490006B857C850E94D7030E2F0E945A03E02FA4
:1004A000E05DEC93E02FF0E00E9482030E9455058E
:1004B0000E9410040E948703DECFAE81BF81E0E07E
:1004C000EC93198108812D960895AA93E5B3EF70F6
:1004D000AE2FE881E07FEA2BE5BB84E18A95F1F756
:1004E000AA9A84E18A95F1F7AA9884E18A95F1F7AE
:1004F00077C0AA93A881E9DFE881E295E883A88123
:10050000E4DF88EC8A95F1F76BC0AA93E881F0E00C
:10051000E950FD4FE081A981AE0FEBDF59804880A3
:1005200022960895A2E00E948C03ACE0E2DFA1E0F5
:100530000E948C03E0E04E2E5E2E0895AA93A881BF
:10054000AA3011F0571448F0E0E0EA934394A42D48
:10055000DCDFA881AA3009F443C05394A89AA8818B
:10056000C8DFA8983DC0BA93AA931A93A981BA810B
:10057000ED91A983BA831E2FE03019F0A12FDEDFA1
:10058000F5CF188123960895AA93E4B3E06FE4BBF6
:10059000A29AA09AA19AAA98A898A9987880E88186
:1005A000E058E093F902E881E054E093FA02A4E114
:1005B000B0E00E949A030E9492030E9492030E945C
:1005C0009203A0E282DF8CE291E00197F1F7A8E2CA
:1005D00090DFA4E08EDFA5E88CDFA6E08ADFA2DF53
:1005E000219608950E946E057B816A81F981E881D8
:1005F00077FB770F67FD7160972F9E5781F078F03A
:10060000983190F4AA27BB27882708948795B79537
:10061000A7959A95D1F7EA23FB23682305C0E894B0
:100620007727EE27FF2766276F77769508F46068AF
:1006300077F9A991B99189919991EA17FB07680710
:10064000790797FB08950E946E050E944A030E9455
:10065000F2020E94470319F40E944D0309C0E6F715
:100660000E944D03A0E0B0E080E89FE30E944304B5
:1006700024960895BA93AA93E991F991A991B99111
:10068000CD0105900D920020E1F7FC0108950E9434
:10069000640508950E945F0508950E945A05089513
:1006A000EE81FF81FA93EA930895E987FA876B87D1
:1006B0007C870895AE81BF811196AE83BF83119769
:1006C0000895AA81BB818C819D810895EDECFCEC9D
:1006D0006CEC7DE30E949A040895EA83FB836C83AB
:1006E0007D830895EA81FB816C817D81A985BA852E
:1006F0008B859C850895E0E0F0E060E271E40E9463
:100700009A040895A985BA858B859C8508950E94D1
:1007100073050E944304C9CF0E947902A3E0B0E0B0
:100720000C949A03A0E30E9465028CE291E0019789
:10073000F1F70895109639F0A89588EB9BE00197A2
:10074000F1F71197C9F7089530976040704009F0AC
:1007500070580895552342F4503811F4E0FF04C056
:100760003196691F791F6BF050E8572711F45F939A
:10077000CFC05F3F31F0660F000C57956795752F1E
:1007800008955F9300200AF0CFC0C8C050E8192E2A
:100790001522880F991F9527550F879550E8072E2A
:1007A0000522660F771F7527550F67950895689482
:1007B00001C0E8945F93F2DF703818F07F3F08F4CF
:1007C000A7C056E1571BAAF4519558300EF4593082
:1007D00030F0EFEFFFEF6FEF7FE777F91AC0772781
:1007E0005523B9F0EE0FFF1F661F771F5A95D1F7FB
:1007F00010C07727583028F0EF2FF62F672F58506A
:10080000F9CF552331F076956795F795E7955A9589
:10081000D1F700200AF441D15F910895689401C096
:10082000E894309760407040B1F0002426F07723C0
:1008300012F4009432D1172E7EE1112032F07A9515
:10084000EE0FFF1F661F111CF9CFEF2FF62F612D42
:100850005F938ADF5F9108954F93AF01FD01DA0145
:10086000AB01BC01CA01402D012C142E4F910895FB
:10087000EA0FFB1F681F0895E095F0956095EF5F04
:10088000FF4F6F4F08955F9381DF903871F150E80B
:10089000152604C05F937ADF903839F1703821F162
:1008A000572F591B2BF112F4D7DFFACF583118F01C
:1008B000AA27BB278827583028F0AB2FB82F8827C6
:1008C0005850F9CF552329F08695B795A7955A9595
:1008D000D9F7502D512572F0CBDF38F46795F79595
:1008E000E795739513F420C0B7DF3EDF5F9108955D
:1008F000D8F7FBCFEA1BFB0B680B51F010F4009408
:10090000BBDF662392F3EE0FFF1F661F7A95CBF7CE
:10091000EE27FF27662777275F910895EFEFFFEF18
:100920006FE77FEF5F910895EFEFFFEF6FE77FE7EE
:100930005F9108955F932ADF703851F3903841F347
:1009400001240894791F23F41CF300203AF3ECCF20
:100950000F921F932F933F934F931127222799278D
:10096000689FA0018F9F302D410D591F6B9F300D47
:10097000411D591F8E9F27D0BF9F25D06A9F23D02E
:10098000BE9F1DD0AF9F1BD0AE9F110D291F391FD9
:10099000491F591FE32FF42F652F522F4F913F917D
:1009A0002F911F910F9066232AF0550FEE1FFF1F06
:1009B000661F02C073954BF2CDDE5F910895100D56
:1009C000211D391F02C0200D311D491F591F0895D7
:1009D0005F93DCDE703821F411200AF49FCFA4CF9E
:1009E000903809F495CF01240894970B1BF4D4F3A5
:1009F0000020F3CF792F1F932F933F934F93112410
:100A00001127222733274427552790E2AE17BF0727
:100A10008607410730F0AE1BBF0B860B410B0894D5
:100A200001C08894551F221F331F111CAA1FBB1F12
:100A3000881F441F9A9551F7F901612D4F913F91FD
:100A40002F911F91662332F0550FEE1FFF1F661F77
:100A50007A9543F27FDE5F91089599239AF0772388
:100A600042F0971748F029F4AE17BF07860720F029
:100A700031F098948894089598940894089518945F
:100A8000889408957723C2F7971798F3A9F7EA1780
:100A9000FB07680788F399F3ECCFF09560957095A4
:100AA000E195FF4F6F4F7F4F08956F2F660F660BD5
:100AB000762F0895E881F9816A817B810895A88164
:100AC000B9818A819B810895E883F9836A837B8356
:100AD00008957A936A93FA93EA9308959A938A937E
:100AE000BA93AA930895182E862F612D192E972F49
:100AF000712D1B2EBF2FF12D1A2EAE2FE12D089533
:00000001FF
