:0C0000000C9433000C9400000C940000E1
:10000C000C9400000C9400000C9400000C94000064
:10001C000C9400000C9400000C9400000C94000054
:10002C000C9400000C9400000C9400000C94000044
:10003C000C9400000C9400000C9400000C94000034
:10004C000C9400000C9400001027E80364000A00D4
:10005C0001000010000110000100F894EE27ECBB29
:10006C00F1E0FBBFEBBFE5BF8DE0A2E0BB27ED935A
:10007C008A95E9F780E098E0A0E6ED930197E9F71F
:10008C00EFE5EDBFE8E0EEBFC0E6D2E00C944E0029
:10009C00EFEFEABBE0E0EBBBE1E8E7BBE0E0E8BB9D
:1000AC00E0E8E4BBE0E0E5BBE1BBE2BBE3BFE2BF01
:1000BC00ECBFEFBDEEBDEDBDECBDE7BDE6BDEBBDF0
:1000CC00EABDE9BDE8BDE2BDE5BDE4BDE3BDE9BF08
:1000DC00E5BFE4BFEAB9E0E8E8B9E0E0E0BFE6B9C3
:1000EC00EDB9E6BFD89A0E949000D8980E94900073
:1000FC00C09AA8ECB0E00E949400C098A8ECB0E0C4
:10010C000E949400AF9A0E949000AF980E949000B9
:10011C00E9CFFFCFA4E6B0E00C949400109639F030
:10012C00A89588EB9BE00197F1F71197C9F7089513
:00000001FF
