:0E0000000C9457000C9400000C9400000C941B
:10000E0000000C9400000C9400000C9400000C9462
:10001E0000000C9400000C9400000C9400000C9452
:10002E0000000C9400000C9400000C9400000C9442
:10003E0000000C9400000C9400000C9400000C9432
:10004E0000000C9400001027E80364000A00010071
:10005E000010000110000100506F742031203A2072
:10006E00256400506F742032203A20256400506FB2
:10007E00742033203A20256400506F742034203AC7
:10008E002025640001002D4E414E00494E460000D1
:10009E0080C0010080029200020084029E000000D7
:1000AE00F894EE27ECBBF1E0FBBFEBBFE5BF8DE0B4
:1000BE00A2E0BB27ED938A95E9F780E098E0A0E6F1
:1000CE00ED930197E9F7E0EAF0E0859195910097BD
:1000DE0061F0A591B59105901590BF01F0010590C5
:1000EE000D920197E1F7FB01F0CFEFE5EDBFE8E0F0
:1000FE00EEBFC0E6D2E00C9493001A931A2FE12FB4
:10010E00E7B988E28A95F1F7369A349BFECF349A96
:10011E00E4B1F5B10C9443032297A0E10E941603BB
:10012E00E7E8E6B90E94E502A0E00E945E03A8EEB1
:10013E00B3E080E090E00E9463038F01E0E0EA9379
:10014E00A0E00E94D3020E946E03E6E6F0E0FA936E
:10015E00EA93F8010E947303A1E00E94D302A1E08A
:10016E000E945E03A0EDB7E080E090E00E94630382
:10017E009F010E946E03E1E7F0E0FA93EA93F90122
:10018E000E947303A2E00E94D302A2E00E945E03CB
:10019E00A8E8B3E180E090E00E946303AF010E9403
:1001AE006E03ECE7F0E0FA93EA93FA010E94730310
:1001BE00A3E00E94D302A3E00E945E03A8EAB1E688
:1001CE0080E090E00E946303E883F9830E946E034F
:1001DE00E7E8F0E0FA93EA93EC81FD810E94C70311
:1001EE000E94180484E00E947B022896A0E6B2E0EA
:1001FE000E940503A8EEB3E00E941D0493CFFFCF2B
:10020E000E94AD039D015E8112960E9410043097EC
:10021E0031F1D90114960E9410048F01309759F0D4
:10022E000230E0E01E0780F0F80131978F01D9010E
:10023E001496ED93FC93D9011296ED91FD913196A2
:10024E00FE93EE9331975083D9010E941004FF2341
:10025E002AF0ED91FD913196FE93EE9305C0D901F2
:10026E00EFEFFFEFED93FC930E94B40327960895F2
:10027E00BA93AA9326970E94AD0310E0AC85BD8574
:10028E00E0E0F0E0ED93FC93EA89FB893196EA8B8E
:10029E00FB8B3197E4912E2FE03009F41DC1E12F35
:1002AE00E03039F4253211F411E002C00E948203CD
:1002BE0012C1E130A9F4253219F40E9482030AC159
:1002CE0012E040E000E02D3211F401E004C12B32C7
:1002DE0011F44BE200C1203211F440E2FCC002C026
:1002EE00E23039F450E013E0203311F40068F3C02B
:1002FE0003C0E33009F0EFC0203310F02A3308F0CA
:10030E0007C0AAE05A9F502DE22FE0535E0FE3C0C4
:10031E00E22FE33649F40E948903E889F989A48122
:10032E00AA930E948F03D6C0E33741F40E9489033B
:10033E000E9495030E9445031E2F0AC0E03761F408
:10034E000E9489030E9495030E9451031E2F08608C
:10035E0002600F7730E03CC0E43611F0E93611F45C
:10036E00046002C0E53731F4E4E5F0E0EE83FF838C
:10037E0015E00CC0E83511F4086003C0E83709F049
:10038E00A9C0EEE5F0E0EE83FF8314E002FF17C094
:10039E000E948903A889B9891496ED91FD91EA8787
:1003AE00FB87AB85AA232AF40E94C303EA87FB8747
:1003BE004DE2403011F01F5F01C00B7F09C00E945B
:1003CE008903A889B98914960E941004EA87FB87CD
:1003DE0000FD11C0151778F407FF08C002FF04C016
:1003EE000B7F242F115001C020E301C020E20E9498
:1003FE0082035150EFCF312F01FF17C03030A1F0E3
:10040E0003FF06C0EE81FF812591EE83FF8305C0B9
:10041E00AE81BF812D91AE83BF830E948203503087
:10042E0009F051503150EACF4BC020E3EE81FF81ED
:10043E000E941404E887F987EE81FF813296EE83DD
:10044E00FF83E885F985AA85BB85AE17BF0750F0F7
:10045E002F5FA885B985EA85FB85EA1BFB0BEA872A
:10046E00FB87EFCF2A3328F003FF02C0295F01C0BC
:10047E00295D04FD1AC0213320F4A885B985119792
:10048E0009F409C0531710F000FF01C013C020E299
:10049E0007FF0BC020E3006102FF07C00B7F4A93EA
:1004AE000E948F03503009F051500E948203503049
:1004BE0009F051503150A885B985129708F0B5CF83
:1004CE0000FF08C0503031F05150E0E2EA930E9434
:1004DE008F03F8CF10E0D8CEAC85BD85ED91FD91A0
:1004EE000E94B40364960895FF92F82E26970E94F8
:1004FE00AD03FE010E94BB0346855785042E052AD7
:10050E0019F4EFEFFFEF21C0DE0118960E94BF0332
:10051E008D0148875987E0E0EA87EB87DE011C965C
:10052E000E94BF03ED91FD91FA93EA931A930A93F9
:10053E00E7E0F1E0FA93EA93DE011C9699DE9F0163
:10054E00A885B985E0E0EC93F9010E94B4032C96DE
:10055E00FF9008951A931A2FE5B3EF70AE2FE12F87
:10056E00E07FEA2BE5BB84E18A95F1F7AA9A84E154
:10057E008A95F1F7AA9884E18A95F1F77DC0AA933E
:10058E00A881E8DFE881E295E883A881E3DF88ECC3
:10059E008A95F1F7219608951A930A931A2F0A81D4
:1005AE00E12FF0E0EC57FD4FE081E00FAE2FE7DFDB
:1005BE00502E412E1981088123960895A2E00E94A3
:1005CE009F03ACE0DCDFA1E00E949F03E0E04E2E33
:1005DE005E2E08951A931A2F1A3011F0571440F008
:1005EE00E0E0EA934394A42DD7DF1A3009F444C017
:1005FE005394A89AA12FC3DFA8983EC00E94AF03C0
:10060E009D01D9012F5F3F4FEC911E2FE03019F065
:10061E00A12FE0DFF6CF0E94B603249608951A9319
:10062E001A2FE4B3E06FE4BBA29AA09AA19AAA98FB
:10063E00A898A998712EE12FE058E0938602E12F39
:10064E00E054E0938702A4E1B0E00E941D040E94F2
:10065E00A5030E94A5030E94A503A0E27BDF8CE206
:10066E0091E00197F1F7A8E28ADFA4E088DFA5E820
:10067E0086DFA6E084DFA2DF19910895BA93AA93CC
:10068E00A991B991EE27FF276D91662311F031964E
:10069E00FBCF0895BA93AA93AA27BB27E991F991A4
:1006AE000590002011F01196FBCFFD0108950E94D8
:1006BE0084006627772708950E94CC03DF01CB01C3
:1006CE00EFEFF3E060E070E00E94EC030895E0E6E7
:1006DE00F2E0FA93EA9308950E94C7030E94180469
:1006EE0084E00E947B022896A0E6B2E00E940503F9
:1006FE00E0E0EA9308952A93AD85BE85EF85F889EB
:10070E0009950895E889F9893497E88BF98B08954E
:10071E00AD85BE85EF85F88909950895A889B989B3
:10072E001496ED91FD91EE83FF83AE81BF81089506
:10073E000E94C602A3E0B0E00C941D04A0E30E9448
:10074E00B1028CE291E00197F1F708955A934A9322
:10075E003A932A931A930A9308955D814C813B81B3
:10076E002A811981088108950024EF0DF01D089546
:10077E000024AF0DB01D0895F195E195F040089558
:10078E006F2F660F660B762F08957A9F702D6B9FD5
:10079E00700DF89F700DE99F700D6A9F602D710DA1
:1007AE00FB9F600D711DE89F600D711D8827FA9FDC
:1007BE00F02D610D781FEB9FF00D611D781FEA9FE4
:1007CE00E02DF10D681F781F08953F934F935F93AF
:1007DE0000241124A00130E2AA0FBB1F881F991F0D
:1007EE00001C111C441F551F0E1A1F0A460B570BD7
:1007FE0028F40E0E1F1E461F571F01C0A1603A950A
:10080E0059F7FD01BC01D001CA015F914F913F9193
:10081E000895ED91FC91119708950590F491E02DB6
:10082E0008957A936A93FA93EA930895109639F09D
:10083E00A89588EB9BE00197F1F71197C9F70895FA
:00000001FF
