:0E0000000C942A000C9400000C9400000C9448
:10000E0000000C9400000C9400000C9400000C9462
:10001E0000000C9400000C9400000C9400000C9452
:10002E0000000C9400000C9400000C9400000C9442
:10003E0000000C9400000C9400000C9400000C9432
:10004E0000000C940000F894EE27ECBBF1E0FBBF2F
:10005E00EBBFE5BF8DE0A2E0BB27ED938A95E9F7F4
:10006E0080E098E0A0E6ED930197E9F7EFE5EDBFAC
:10007E00E8E0EEBFC0E6D2E00C94B800442455246C
:10008E0084D094F4EFE3E5BBE0E0E2BB88EB97E1CC
:10009E000197F1F7E1E0E2BB88EB97E10197F1F709
:1000AE00F20131962F01ECCF0895442455246DD0E2
:1000BE0094F4E6E0E5BBE0E0E2BB88E696E101976A
:1000CE00F1F7E1E0E2BB88E696E10197F1F7F20184
:1000DE0031962F01ECCF08954424552456D094F434
:1000EE00EBE5E5BBE0E0E2BB85EF93E10197F1F7CD
:1000FE00E1E0E2BB85EF93E10197F1F7F201319672
:10010E002F01ECCF0895442455243FD094F4E6E615
:10011E00E5BBE0E0E2BB88EC90E10197F1F7E1E0AE
:10012E00E2BB88EC90E10197F1F7F20131962F01D5
:10013E00ECCF08954424552428D094F4EDE7E5BB84
:10014E00E0E0E2BB80E59DE00197F1F7E1E0E2BB84
:10015E0080E59DE00197F1F7F20131962F01ECCF8A
:10016E000895EFEFE4BBB8DF15D0CDDF13D09DDFE0
:10017E0011D09BDF0FD0DEDF0DD080DF0BD0DADFAA
:10018E0009D0C1DF07D0EDCFFFCFE4E6F0E04E1689
:10019E005F060895A8EEB3E00C94D500109639F0E2
:1001AE00A89588EB9BE00197F1F71197C9F7089591
:00000001FF
