:040000000C94390023
:100004000C9400000C9400000C9400000C9400006C
:100014000C9400000C9400000C9400000C9400005C
:100024000C9400000C9400000C9400000C9400004C
:100034000C9400000C9400000C9400000C9400003C
:100044000C9400000C9400000C9400000C9400002C
:100054000000000000003F065B4F666D7D077F6F68
:100064000600040054000A0060025A000000F894DC
:10007400EE27ECBBF1E0FBBFEBBFE5BF8DE0A2E0F8
:10008400BB27ED938A95E9F780E098E0A0E6ED932D
:100094000197E9F7E4E6F0E085919591009761F026
:1000A400A591B59105901590BF01F00105900D92B1
:1000B4000197E1F7FB01F0CFEFE5EDBFE8E0EEBF1C
:1000C400C0E6D2E00C948800BA93AA930E94280157
:1000D400AC81BD81EAE0F0E00E940C018F01AC81AB
:1000E400BD81EAE0F0E00E9407019F01A0E6B2E0D2
:1000F400A00FB11FEC91E5BBA0E6B2E0A20FB31FC5
:10010400EC91EBBB0E942D012696089500E010E0CF
:10011400EFE7E4BBEABBE0E0E1BBE7E0E2BB269744
:10012400E0E0809BE1E0F0E0EC83FD83E0E0819B94
:10013400E1E0F0E0EA83FB83E0E0829BE1E0F0E0D1
:10014400E883F983EC81FD81309719F0062C0728A8
:1001540009F009C0F2010E94EF004E2E5524A4E6D6
:10016400B0E00E94E1006C807D80E881F9813097E5
:1001740031F000E010E0A4E6B0E00E94E1008A80E3
:100184009B80042C0528C1F0D8019EDF082C092887
:1001940039F001501040112312F403E610E008C0B6
:1001A4000F5F1F4F0436E0E01E0714F000E010E07C
:1001B400A8EEB3E00E94E1002696B1CFFFCF1096DF
:1001C40039F0A89588EB9BE00197F1F71197C9F7EF
:1001D4000895F195E195F0400895EF2BE1E009F0E1
:1001E400E0E008950024112490E1AA0FBB1F001C35
:1001F400111C0E1A1F0A18F40E0E1F1E01C0A16056
:100204009A9599F7FD01D001089512D0EBDF0EF411
:10021400E0DF0895E894B7FF04C0A095B095119667
:100224006894F7FDD6DFDEDFFD010EF4D2DF08951A
:10023400E894F7FF02C0CDDF6894B7FF06C0A0952D
:10024400B095119600F8039400FA08953A932A930E
:100254001A930A9308953B812A811981088108958C
:00000001FF
